:020000040800F2
:1000000000180020CD5600088148000883480008E9
:1000100000000000000000000000000000000000E0
:1000200000000000000000000000000085480008FB
:100030000000000000000000874800088948000810
:100040004D5700084D5700084D5700084D57000800
:100050004D5700084D5700084D5700084D570008F0
:100060004D5700084D5700084D57000895480008A7
:100070004D5700084D5700084D5700084D570008D0
:100080004D57000800000000000000004D57000818
:10009000000000004D5700084D5700084D5700085C
:1000A000000000004D5700084D5700084D5700084C
:1000B000CD48000800000000BD480008AD48000819
:1000C00010B5064C2378002B07D1054B002B02D02E
:1000D000044800E000BF0123237010BD6001002030
:1000E00000000000BC570008044B10B5002B03D0E3
:1000F0000349044800E000BF10BDC04600000000F6
:1001000064010020BC5700080023C25C0133002AB0
:10011000FBD1581E70470000002243088B4274D365
:1001200003098B425FD3030A8B4244D3030B8B42F8
:1001300028D3030C8B420DD3FF22090212BA030C01
:100140008B4202D31212090265D0030B8B4219D3E2
:1001500000E0090AC30B8B4201D3CB03C01A524102
:10016000830B8B4201D38B03C01A5241430B8B424A
:1001700001D34B03C01A5241030B8B4201D30B0333
:10018000C01A5241C30A8B4201D3CB02C01A52415A
:10019000830A8B4201D38B02C01A5241430A8B421D
:1001A00001D34B02C01A5241030A8B4201D30B0206
:1001B000C01A5241CDD2C3098B4201D3CB01C01A20
:1001C000524183098B4201D38B01C01A524143092A
:1001D0008B4201D34B01C01A524103098B4201D318
:1001E0000B01C01A5241C3088B4201D3CB00C01A85
:1001F000524183088B4201D38B00C01A52414308FD
:100200008B4201D34B00C01A5241411A00D2014621
:10021000524110467047FFE701B5002000F006F894
:1002200002BDC0460029F7D076E770477047C04648
:1002300010B5040002F0C4FDFA218900FFF76CFF3D
:1002400000F042FD012000222100404200F0F6FCB7
:10025000002010BD10B5064A136810210B4313602F
:100260000020FFF7E5FF04F057FA002010BDC0465C
:1002700000200240024A1368013313607047C046F1
:100280007C010020014B18687047C0467C010020AB
:1002900030B583B00190FFF7F5FF0500019C631CAA
:1002A0005A1E9341E418FFF7EDFF401BA042FAD31A
:1002B00003B030BDF0B5012632004B699A4080256D
:1002C000AD0003685C594B6A1B023D4F3C40234321
:1002D0003343046863518724A40003681B59D54342
:1002E000934306683351CB69002B18D10668103C44
:1002F00033592B403351CB681C048B881C434B690A
:100300004833DB0006689C518B681B040C88234330
:100310004C694834E4000668B44664446360CB69C1
:10032000012B1DD08B69002B35D106688124A400D8
:1003300033592B4033510B69002B33D10668852488
:10034000A40033591D4035510B6A012B31D001688F
:10035000802292008B58012083438B500020F0BDF7
:1003600006688324A4003359134333510B681C04DB
:100370008B881C434B694833DB0006689C518B68B3
:100380001B048C8923434C694834E4000668B44656
:1003900064446360C6E706688124A40033591343AC
:1003A0003351C8E705688524A4002B5913432B510A
:1003B000CAE704688721890063581A436250C6E778
:1003C000FFC0FFFF70B5041E00D1B5E03D23C35C44
:1003D000002B20D002213D23E154226813688B4377
:1003E00013602268136801390B431360FFF74AFF5B
:1003F0000500012623685A68164212D1FFF742FF12
:10040000401B0A28F6D93D230322E254013B002277
:10041000E254032070BD3C330022C25404F0A6F91C
:10042000D8E75A68D20700D481E0A269012A51D0E6
:100430001A6880218A431A60E369012B4FD0226831
:10044000136840218B431360236A012B4DD022682F
:10045000136820218B431360636A012B4BD0226801
:10046000136810218B431360A36A012B49D02268C3
:10047000136808218B431360E36A012B47D022687D
:10048000136804218B4313602168A368E268134357
:1004900022691343626913436268013A1343CB61D3
:1004A0002268136801218B431360FFF7EBFE050000
:1004B000012623685A6816422FD0FFF7E3FE401B3F
:1004C0000A28F6D93D230322E254013B0022E254DC
:1004D00003209FE71A6880210A431A60ACE722686C
:1004E000136840210B431360AEE722681368202194
:1004F0000B431360B0E72268136810210B431360AD
:10050000B2E72268136808210B431360B4E722683E
:10051000136804210B431360B6E75B68DB0706D45E
:10052000002323643D330122E254002072E73D237F
:100530000422E25401206DE701206BE7F8B5CE46B6
:10054000474680B504000E0003689A68520106D43D
:100550009A68120103D49A68D20000D4F9E03C22D0
:10056000A25C012A00D1F9E03C220121A154013210
:10057000A15CCAB2322975D0622A77D0222A03D070
:100580003D221221A15402E01B324221A1549A685B
:100590000025520106D49D688022120515406A424A
:1005A0005541013529015B18C02040001F58012228
:1005B0003A401A50226B906800285BD12368581883
:1005C000C0277F00C3599C4613685B05D26813435C
:1005D00062461343C351226B0F2713693B401361DB
:1005E00023685A18C2235B00D058B843D050226801
:1005F0005218D058276B3F693843D050226BD37DB7
:100600001B06907D00040343107D0343527D1202BC
:1006100013432F012268D0198930FF300360226B09
:10062000D37E1B06907E00040343107E0343527E5C
:10063000120213432268944667443A008D32FF3217
:10064000136023689C466144C02252008B580120ED
:1006500003438B50FFF716FE8146414F414B9846AE
:10066000414A48E03D225221A15490E73D227221A7
:10067000A1548CE723685F18C0235B009C46FB589D
:1006800098465368DB00D268104303434246134345
:100690006246BB509FE7002E05D0FFF7F3FD4B46A7
:1006A000C01AB042DCD93D230322E254002D09D107
:1006B0002268936880210B4393603C230022E2541C
:1006C00003203AE0012D06D02268916880231B04A4
:1006D0000B439360F1E72268916880231B020B4370
:1006E0009360EAE7012D1AD023689B683B40BB4228
:1006F00008D0731CCFD1002DF4D123689B68134020
:100700009342F6D13D23E25CD3B2522A19D0722B28
:100710001BD0422B0AD03D230122E25409E023687A
:100720009B6841460B404345E3D1EBE7053B222262
:10073000E2543C230022E2540020C0BCB946B0463B
:10074000F8BD3D233222E254F3E73D236222E25416
:10075000EFE73D230422C2540120EEE70220ECE73C
:1007600000000110000100080100000430B53C2326
:10077000C35C012B63D03C230122C254002960D109
:100780000133C35C222B18D03D23C35C422B14D011
:100790003D23C35C622B10D03D23C35C722B0CD075
:1007A0003D23C25CD3B2322A25D0522B27D0122B44
:1007B0000DD03D232222C2540CE03C230022C2541F
:1007C000022033E03C230022C25402202EE02B33CF
:1007D0004222C25400220264046865698F231B020E
:1007E0002B4363613C23C254026853690A200343CC
:1007F000536108001AE03D236222C254EAE73D2318
:100800007222C254E6E72B335222C2540022026401
:1008100001684C698F231B0223434B613C23C25464
:100820000268536950210B435361002030BD3D23C2
:100830006222C254EAE73D237222C254E6E7022054
:10084000F4E701290FD13D23C35C322BBAD03D23FD
:10085000C35C522BB6D03D23C35C622BB2D03D2388
:10086000C35C722BAED03D23C25CD3B2222ADED051
:10087000422BE0D0122BC6D03D233222C254C5E712
:100880007047000070B5002900D086E0436B0A0075
:100890001B32120104681459042222409A607ED14E
:1008A0000A001B32120104681259520D1A600A0024
:1008B0001B32120104681459A407E40FDC600468B9
:1008C000A41865680F242C401C610468A446624487
:1008D00052681204120EDA6119620A010468A4183F
:1008E000B934FF3424681C750468A418B934FF3483
:1008F0002468240A5C750468A418B934FF34246899
:10090000240C9C750468A418B934FF342468240EA0
:10091000DC750468A418BD34FF3424681C760468B0
:10092000A418BD34FF342468240A5C760468A41833
:10093000BD34FF342468240C9C760468A4466244C9
:10094000BD32FF321268120EDA7600292FD102680A
:10095000D36820242343D36002685369163CA34321
:1009600053613D23C35C222B03D03D23C35C322B58
:1009700004D102685369274C23405361002930D1C8
:100980003D23C25CD3B2622A23D0722B25D0422BE6
:1009900018D03D230122C25417E0836B77E70A0089
:1009A0001B32120104681259D2085A607FE70268AC
:1009B0001369202423431361026853693034A3432D
:1009C0005361CEE7053B1222C25403F079FE0020AA
:1009D00070BD3D233222C254F7E73D235222C25458
:1009E000F3E73D23C25CD3B2622A0BD0722B0DD049
:1009F000522B03D03D230122C254E6E7153B1222BD
:100A0000C254E2E73D232222C254DEE73D234222C4
:100A1000C254DAE7FF70FFFF7047000070B50400B2
:100A20000168CB68102215001D401A4209D04B699D
:100A3000083A15001D401A4203D01023CB608025D0
:100A4000AD0023681A69D20607D55A69520604D543
:100A50008022D200154310221A6123685A69D207F6
:100A60003ED59A686E490A408A4209D09A686D4913
:100A70000A408A4204D09A686B490A408A422FD1C0
:100A80009A68920706D49A68920503D49A689203EA
:100A900000D47FE05A6901218A435A613D23E35C17
:100AA000122B0CD03D23E25CD3B2522A6AD0722BB7
:100AB0006CD0422B09D03D230122E25408E0226889
:100AC00053695A490B405361ECE7053B2222E2543B
:100AD0002000FFF7D5FE22689168554B0B439360C9
:100AE00023685A69920702D5DB689B0756D12368B1
:100AF0005A69D20602D51B699B0754D1236C2B433C
:100B0000236423689A69D20709D55A69D20506D5A4
:100B10005A69120403D5226C01210A4322649A699E
:100B2000920709D55A69920506D55A69120403D568
:100B3000226C02210A4322649A69520709D55A6934
:100B4000520506D55A69120403D5226C04210A43C2
:100B500022649A697021114234D05A69120531D544
:100B60005A6912042ED5996970220A40402A3CD055
:100B70002CD8202A34D0302A1AD1226C20210A43C2
:100B800022641BE03D233222E254A1E73D2362228E
:100B9000E2549DE780231B011D439CE700212000B8
:100BA000FFF770FEA3E701212000FFF76BFEA5E72A
:100BB000102A03D1226C08210A4322649A69702109
:100BC0008A439A61236C002B19D170BD502A11D031
:100BD000602AF3D1216C802252000A432264EDE79F
:100BE000226C10210A432264E8E7226C40210A4368
:100BF0002264E3E7226C80210A432264DEE7226854
:100C0000536804210B4353603D230122E2542268C0
:100C1000536908490B4053612000FFF7FDFED4E7FC
:100C2000010000040001000800000110FF70FFFF38
:100C300019050100A470FFFF006C704770B5002813
:100C400014DB8408A400144B9C466444C026B60000
:100C5000A55903221040C000FF231A00824095438B
:100C600089010B4083402B43A35170BD0F230340E8
:100C7000083B9B089B00094A94466344DD690324B2
:100C80002040C000FF2214008440A54389010A408F
:100C900082402A43DA61E8E700E100E000ED00E08D
:100CA0001F2318401E3B8340014A13607047C04613
:100CB00000E100E01F2318401E3B834001498022D1
:100CC0008B50704700E100E0013880235B049842BC
:100CD0000FD2094A50600948036A1B021B0AC0214F
:100CE00009060B430362002393600733136000205F
:100CF00070470120FCE7C04610E000E000ED00E096
:100D0000042805D0054A136804218B4313607047FB
:100D1000024A136804210B431360F8E710E000E077
:100D2000704710B5FFF7FCFF10BD000070B5041E42
:100D30002CD021250223435501680B68144A1A4020
:100D4000436880680343E0680343206903436069A4
:100D50000343A0690343E069034313430B60206826
:100D60000C4B9C4660441421FFF7D6F980002064A8
:100D7000094BE3630023A362E36223636363A3631A
:100D8000012262551F32A354002070BD0120FCE7F0
:100D90000FC0FFFFF8FFFDBF0000024070B5202428
:100DA000045D012C41D02024012505550134045D4A
:100DB000012C04D020230022C254022070BD203414
:100DC0000135055500248463066835680134A54360
:100DD0003560C56B066CB4406C6004686360436842
:100DE000102B12D0036899600368DA60C36A002B85
:100DF00010D0026813680E210B4313600268136859
:100E000001210B4313600020D8E703689A60036850
:100E1000D960EBE7026813680A210B43136002688C
:100E2000136806398B431360E8E70220C6E710B564
:100E3000026813680E218B43136001680A6801235E
:100E40009A430A60C26B1900046CA14051602122D0
:100E500083541F330022C254002010BD10B521233B
:100E6000C35C022B03D004238363012010BD0268FE
:100E700013680E218B43136001680A6801239A43AB
:100E80000A60C26B1900046CA14051602122835496
:100E90001F330022C254436B002B02D0984700201E
:100EA000E4E70020E2E770B5C36B1A6804682568C0
:100EB000016C04238B401A4212D06B0710D52368B3
:100EC0009B0603D42368042293432360C26B04234C
:100ED000016C8B405360C36A002B00D0984770BDF3
:100EE00002238B401A4218D0AB0716D523689B0605
:100EF00006D423680A22934323602123093AC2546B
:100F0000C26B0223016C8B40536020230022C25429
:100F1000836A002BE3D09847E1E708238B401A420D
:100F2000DDD02B07DBD523680E2293432360C26BF1
:100F300001231900046CA140516083632122835472
:100F40001F330022C254036B002BC8D09847C6E75A
:100F50000D4BDA6810210B001340114205D00B4AEB
:100F6000D3690E390B43D3611023074AD268520765
:100F700006D50649CA6901200243CA610422134307
:100F8000014AD3607047C046002002408001002023
:100F9000064B1B691B0606D5044B054A5A60054AD9
:100FA0005A60002070470120FCE7C0460020024044
:100FB00023016745AB89EFCD034A136980210B43B9
:100FC000136100207047C04600200240064B1B6999
:100FD0009B0506D4044B054A9A60054A9A60002096
:100FE00070470120FCE7C04600200240230167450E
:100FF000AB89EFCD034A136903490B40136100200D
:101000007047C04600200240FFFDFFFFF8B5040016
:10101000FFF738F90700134E0125F3681D420AD087
:10102000631CFAD0002C1BD0FFF72CF9C01BA04288
:10103000F3D903200FE00B4BDB689B0602D5094B6D
:101040002022DA60074BDB68DB0605D4054BDB6842
:1010500000205B0700D4F8BDFFF77AFF0120FAE714
:101060000320F8E70020024010B5054A11698023EB
:101070009B010B4313610348FFF7C8FF10BDC04637
:101080000020024050C3000070B504001348FFF771
:10109000BDFF002800D070BD114B0022DA61114D58
:1010A0002B69202633432B612B69403213432B617C
:1010B0000A48FFF7ABFF2B69B3432B610028EAD145
:1010C0002B69103E33432B61A4B2074B1C800348AD
:1010D000FFF79CFF2B69B3432B61DCE750C3000093
:1010E000800100200020024000F8FF1F70B5164B61
:1010F000DA6906231340022B0CD0043B5A425341B9
:101100005B4222241C40AA341048FFF77FFF0028CE
:1011100002D070BDBB24F7E70D4B0022DA610A4D07
:101120002B69202633432B612B69403213432B61FB
:101130000648FFF76BFF2B69B3432B610028E8D10A
:10114000E0B2FFF7A1FFE4E70020024050C3000037
:1011500080010020F8B504005B4B1B7E012B00D101
:10116000AFE00123584A137602681A4256D043680A
:10117000012B0BD08568554B1E6A5548FFF746FF7B
:1011800000282AD0504B00221A7654E086684F4B34
:101190001D6A4F48FFF73AFF0028F3D14A4B00225F
:1011A000DA61FFF7A3FF0028ECD1B543FF231D4010
:1011B000464A136910210B431361FF2D05D1434AA1
:1011C000136910218B4313611DE0424A13891D40AE
:1011D00015813F48FFF71AFFF1E73B4B0022DA6128
:1011E000FFF784FF0028CDD13543FF231D40374A48
:1011F000136910210B431361FF2D07D1334A136983
:1012000010218B431361002809D0BBE7314A1389B1
:101210001D4315812E48FFF7F9FEEFE701202368F3
:101220009B0709D423685B070FD423681B072AD4C4
:10123000254B00221A76F8BD207BFFF725FF0028FA
:10124000F0D0214B00221A76F5E7657B2048FFF7A6
:10125000DDFE002803D01C4B00221A76EBE71A4B68
:101260000022DA61194E336910273B433361ADB276
:10127000184B5D801648FFF7C9FE3369BB433361E5
:101280000028D2D0E7E72769257D1148FFF7BEFE89
:10129000002803D00C4B00221A76CCE70A4B002220
:1012A000DA610A4C2369102633432361ADB23D80D5
:1012B0000748FFF7ABFE2369B34323610028B7D08B
:1012C000E8E70220B7E7C046800100200020024086
:1012D00050C3000000F8FF1F072303600B4B1A6A7E
:1012E0008260DA6906231340022B0CD0043B5A4279
:1012F00053415B4222221340AA330373034BDB6941
:101300001B0A43737047BB23F7E7C0460020024027
:10131000F0B5DE4657464E464546E0B587B00A680A
:10132000002A00D1C3E0002301271024A2460D3C6F
:10133000A14680246405A346604C041965426C41B3
:101340006442039442E0DA08920082180292156A1D
:10135000AC4607251D40AD000F26AE40B0466646A0
:1013600042469643B4460E69AE4035006246154388
:10137000029A156236E00024AC4065462C43946026
:101380004F4A1268019CE4434D68ED0300D582E0AA
:1013900022404B4D2A606A684D68AD037ED42240DE
:1013A000474D6A60AA684D68ED027AD42240444DE8
:1013B000AA60EA684D68AD0276D422401600404A21
:1013C000D66001330A681400DC4070D03C009C40B9
:1013D0001600264001962242F3D04A685546AA4399
:1013E000022AB0D0026890465D004A46AA40D64321
:1013F000B44646469643B0464A684E463240AA40F6
:101400004646324302604A685646B243013A012AD0
:101410000FD8826866461640CA68AA403243826086
:101420004268A24314004A6812093A409A40224393
:101430004260C468624614408A68AA402243C2607F
:101440004A685C462242BCD01E4A94693C4394617F
:1014500092693A400592059A9A0892001A4CA4465D
:1014600062449468A4464D461D40AD000F24AC4034
:101470006646A643B4469024E405A04200D17AE72C
:10148000124CA04205D00224039EA643340005342A
:1014900072E7012470E7019D2A437AE7019D2A4300
:1014A0007EE7019D2A4382E7019E164387E707B046
:1014B000F0BCBB46B246A946A046F0BD00F8FFB757
:1014C00000040140001002400000014000040048F8
:1014D000002A01D0816170478162FCE770B5041E6B
:1014E00024D00368124A1A600368124A1A6003681B
:1014F00042685A60036882689A60FEF7C3FE05007E
:101500002368DA68002A06D0FEF7BCFE401B2728B5
:10151000F6D9032070BD1969E268914202D01A61C0
:101520000020F7E7044A1A600020F3E70120F1E702
:10153000CCCC000055550000AAAA00000368024A5E
:101540001A6000207047C046AAAA000070B5051EA8
:1015500049D0EA23FF33C35C002B3DD0EA23FF339D
:101560000322EA546C68002C1DD02B002833002184
:101570000120002258701970DA70DA601A615A611D
:1015800001311C33A142F5D12B000933FF33002177
:1015900000225A701970DA70DA601A615A610131EA
:1015A0001C33A142F5D1402301222968CA520022EE
:1015B0002968CA524421286842520C312868425294
:1015C0000A4A2968CA5200221C3BEA540122EA2333
:1015D000FF33EA54002070BDE933FF330022C254C8
:1015E00003F04AFABAE70120F5E7C04600BFFFFF63
:1015F000016858228B5A8020000203438B5200203E
:101600007047F4235B00C35C012B13D0F4235B0011
:101610000122C25400290AD19D3BFF3B7F32016861
:10162000CA52F4235B000022C254002070472423D6
:10163000C154F6E70220F9E770B54DB2002D2ADB60
:101640007F260E40F400A41BA4000934FF340419C3
:101650007F2631402170ED0F6570E260E370F42366
:101660005B00C35C012B00D14EE1F4235B0001223F
:10167000C254E378022B00D168E014D8002B1FD0AD
:1016800023789B000568EA5AA04911408022D200C5
:101690000A43EA521EE07F260E40F400A41BA40079
:1016A00028340419D4E7032B14D123789B00056850
:1016B000EA5A96491140C022D2000A43EA5209E090
:1016C00023789B000568EA5A9049114080229200D5
:1016D0000A43EA522278950001684B5B8C4E3340F6
:1016E00013438C4A13434B53A37A002B00D07BE067
:1016F0006378002B32D002685023D35A2178C90076
:1017000052189B188022D20094466344A28801217B
:101710008A431A8023789B000268D118D35A5A064C
:1017200003D533407C4A13430B802278920004682F
:10173000A35A7A490B4020214B4076490B43A352D0
:10174000F4235B000022C254002070BD23789B006C
:101750000168CA5A6D4D2A40CA52BBE7026850253B
:10176000535B2178C90052189B186D4A9446634414
:10177000A28801218A431A800268535B2178C9003C
:101780005B1868498C4662449B18E2683E2A22D95D
:10179000510989B2D20601D1013989B28902624A5E
:1017A0001143198023789B000268D118D35A5A0438
:1017B00004D5574A13405D4A13430B8023789B009E
:1017C0000468E15A5A4A1140C02292015140514ADC
:1017D0000A43E252B4E7510889B2D20701D5013178
:1017E00089B289021980DDE723789B000568EA5AEF
:1017F00050491140504A0A43EA5202685026935B0E
:101800002178C90052189B188022D2009446634464
:10181000E2880125AA431A800268935B2178C900F7
:1018200052189B183E4A944663442289AA431A8060
:101830006378002B35D123789B000268D118D35AE6
:101840005A0404D5324A1340384A13430B80237894
:101850009B000268D118D35A5A0604D52C4A13406B
:101860002D4A13430B8023789B000568EA5A2849C8
:101870001140294A0A43EA522178890005686B5AC7
:101880002B4A1A40C0239B015340224A13436B52F8
:1018900023789B000468E15A204D29400A43E25214
:1018A0004EE723789B000268D118D35A5A0404D516
:1018B000174A13401D4A13430B8023789B0002688C
:1018C000D118D35A5A0604D5114A1340124A134369
:1018D0000B8023789B000568EA5A0D491140134A92
:1018E0000A43EA522178890005686B5A0B4A134073
:1018F000084A13436B5223789B000468E15A0C4D4D
:1019000029400A43E2521BE702201EE78F89FFFFAE
:101910000F0F00008080FFFFC080FFFFBF8FFFFF21
:1019200004040000060400000080FFFF80C0FFFFE9
:101930008FBFFFFF0F0E00008081FFFF30B50C004E
:101940004AB2002A37DB7F212140CB005B1A9B0083
:101950000933FF33C3187F2121401970D20F5A7009
:10196000F4225200825C012A00D1AFE0F42252003E
:10197000012181549A7A002A3BD15A78002A22D038
:101980001A78920001688C188A5A510604D5504979
:101990000A4050490A4322801B789B000468E25A9F
:1019A0004D4911404D4A0A43E252F4235B000022A4
:1019B000C254002030BD7F212140CB005B1A9B0028
:1019C0002833C318C7E71A78920001688C188A5A1E
:1019D000510404D53E490A4041490A4322801B78FC
:1019E0009B000468E25A3F4911403C4A0A43E252D4
:1019F000DBE75A78002A34D11A78920001688C18F3
:101A00008A5A510404D532490A4035490A43228092
:101A10001A78920001688C188A5A510604D52C490C
:101A20000A402C490A4322801A7892000168895A98
:101A3000274C0C40274921430468A1521C78A4007C
:101A40000268125B27490A4024490A4305682A5361
:101A50001B789B000468E25A1F4D2A401143E15253
:101A6000A3E71A78920001688C188A5A510404D5A9
:101A700017490A401A490A4322801A7892000168DD
:101A80008C188A5A510604D511490A4011490A4353
:101A900022801A7892000168895A0D4C0C40104936
:101AA00021430468A1521C78A4000268125B0A4911
:101AB0000A400A490A4305682A531B789B000468B8
:101AC000E25A084D2A401143E1526EE7022071E7C5
:101AD0000F0F0000C080FFFFBF8FFFFF8080FFFF60
:101AE00080C0FFFF8FBFFFFFF0B57F242140CC00F7
:101AF000641AA400041925001935FF352A60083539
:101B000000222A60173D2A7022000932FF3211702C
:101B10001534FF34226800249A4201D29C1A130023
:101B2000CA00521A9200821815001D35FF352C602C
:101B30001332FF321278002A31D104685032A25A8F
:101B4000CD005219534DAC46644412193E2B1DD999
:101B50005C09A4B2DB0601D1013CA4B2A4024E4B45
:101B60001C431480CB00591A890041180931FF31F8
:101B70000B789B000068C15A484A1140C02292016C
:101B80005140474A0A43C2520020F0BD5C08A4B24B
:101B9000DB0701D50134A4B2A4021480E2E7046893
:101BA0005022A25ACD0052193E4DAC46644412193F
:101BB0003E2B2AD95C09A4B21F273E001E402500F7
:101BC0001F4201D1651EADB2AD02334F3D431580BA
:101BD000CA00521A920082180A32FF321278002A82
:101BE0003FD0012ABED104684F32A55ACA00521A0A
:101BF000920082180932FF321278D200A4182C19F0
:101C0000244A944664442380ACE75C08A4B20127CC
:101C10003E001E4025001F4201D0651CADB2AD0242
:101C20001580CA00521A920082180A32FF321278C6
:101C3000002AD6D102685023D55ACB005B1A9B00EC
:101C4000C3180933FF331B78DB00EB18114DAC468A
:101C500062449A18002E01D00134A4B2A402148068
:101C600080E702685023D55ACB005B1A9B00C3184B
:101C70000933FF331B78DB00EB18064DAC4662449A
:101C80009A18002E01D1013CA4B2A302024C1C43BD
:101C9000148067E7060400000080FFFF8FBFFFFF8E
:101CA0008080FFFF020400000B007F211940CB0061
:101CB000591A890040182130FF3000887047000011
:101CC00030B5F4235B00C35C012B52D0F4235B00DE
:101CD0000122C2544BB2002B25DBCB005A1A9200D2
:101CE000821814000B34FF34012525707F240C402A
:101CF0000932FF321470591A890041180A31FF3134
:101D000000230B70002C28D101680A881A4B1A4056
:101D10001A4B5A401A4B13430B80F4235B000022EA
:101D2000C254002030BD7F231940CB005B1A9B00BA
:101D3000C3181C002A342270023C217029331A7007
:101D40000029E1D089000468635A0E4A134010222A
:101D500053400B4A13436352DFE7A40001680A5B58
:101D6000094B1A4080235B015A40054B13430B5328
:101D7000D3E70220D6E7C046BFBFFFFF1010000028
:101D80008080FFFFBF8FFFFF8FBFFFFF10B50C00EC
:101D90004AB2002A35DBCB005B1A9B000933FF33C4
:101DA000C318002199707F3121401970D20F5A70E9
:101DB000F4225200825C012A44D0F4225200012114
:101DC00081545A78002A24D01A78920001688C181D
:101DD0008A5A510604D51C490A401C490A432280EC
:101DE0001A7892000468A35A19490B4030214B40DD
:101DF00018490B43A352F4235B000022C254002075
:101E000010BD7F212140CB005B1A9B002833C318F3
:101E1000C7E71A78920001688C188A5A510404D5D1
:101E200009490A400C490A4322801B789B00046838
:101E3000E15A0A4A1140C02292015140054A0A4320
:101E4000E252D8E70220DBE70F0F0000C080FFFF5F
:101E5000BF8FFFFF8080FFFF80C0FFFF8FBFFFFFAE
:101E600010B501335B088024E400A4466044821866
:101E7000002B0BD0580008180B00541A597809028F
:101E80001A780A43E25202339842F7D110BD00009B
:101E9000F0B5C64600B5060017007F240C40E500EB
:101EA0002D1BAD004519AA6300222A642A0029329D
:101EB00001211170013A14706A6B00219A4201D21B
:101EC000991A1300E000001B80003018C163323003
:101ED0000278002A40D03268A100895A490654D5B8
:101EE0005021515AE00012188A1837498C46624432
:101EF0001380021B9200B218128E9BB2E5002D1BBC
:101F0000AD007519A96B3068FFF7AAFF29352B784A
:101F1000002B48D1E3001B1B9B00F31828331B78D0
:101F20009B003068C25A29491140294A0A43C252CB
:101F3000E1000C1BA4003419283422789200306888
:101F4000835A24490B4030214B4023490B43835291
:101F5000002080BCB846F0BD9BB29846E5002D1B22
:101F6000AD007519AA8D39003068FFF779FF326826
:101F70005023D35A28352978C90052189B18174A7C
:101F80009446634442461A80D2E75021515AE000F9
:101F900012188A1811498C4662441380021B920061
:101FA000B218D28DA9E7012BC2D1E3001B1B9B0005
:101FB000F31828331B789B003068C25A034911403C
:101FC000074A0A43C252B3E7060400000F0F00009D
:101FD000C080FFFFBF8FFFFF8080FFFF0204000073
:101FE00080C0FFFFF0B55F088024E400A446604491
:101FF00082181000002F0DD008003D00561A345AE8
:102000000470240A4470013D0230002DF7D17F0096
:10201000D019C919DB0701D503880B70F0BD00008A
:10202000F0B5D6464F464646C0B582B004000068BB
:102030004423C35A1BB2002B4FDB236844229A5A15
:10204000520500D597E2236844229A5A520404D5D7
:1020500044215A5AC14802405A52236844229A5A8B
:10206000920404D544215A5ABD4802405A5223686A
:1020700044229A5AD20400D58AE2236844229A5A0A
:10208000120514D54422995AB64801409952206845
:102090004023C15A08252943C1522068C15A043D32
:1020A0002943C15223689B5ADB0400D482E223688F
:1020B00044229A5A920500D580E2236844229A5A13
:1020C000D20504D544215A5AA74802405A5202B0B8
:1020D000E0BCBA46B146A846F0BD6B460022DA80A5
:1020E0004423C35A9BB201AA13801BB2002BA4DA6B
:1020F00015000F2398466B469E1DC3E103889B4A3B
:102100001340038020685023C35A2822A25CD200C7
:1021100082189B18964A944663441B889B059B0D26
:102120002364A26B94466344A3630021200002F061
:10213000DBFC2423E35C002B00D19AE1E36B002B52
:1021400000D096E12422A35C80210B43343920681F
:1021500043520023A3548CE15023C35A84225200DB
:10216000A25CD20082189B18824A944663441B8862
:102170009B059B0D22000932FF329361928821005A
:10218000ED31FF31FFF72EFF226813887A490B40AB
:102190001380200002F090FC6BE1170092883969EF
:1021A000FFF720FF3B69BA69944663443B6198E1BD
:1021B0004A0892B2C90701D5013292B292021A803E
:1021C000ABE1BB009946C118C25A328033881BB2BA
:1021D000002B2FDB33881B0600D44AE122684B46D4
:1021E000D35A62490B4049465352FB00DB1B9B000C
:1021F000E31832331B78002B00D0EBE0206850331B
:10220000C35AFA00D21B9200A21811002831097893
:10221000C90041185B1856498C4663441B889B05CE
:102220009B0D136400D102E11100928D896BFFF7C1
:1022300017FEFCE0504B1A400A80FB00DB1B9B00A2
:10224000E3181333FF331B78002B24D1206850335D
:10225000C25AFB00DB1B9B00E3180933FF331B78DA
:10226000DB00C318D318434A944663441B889B057C
:102270009A0D9246002B37D0FB00DB1B9B00E31826
:102280001A000D32FF3212881933FF331968534692
:10229000FFF7A8FE28E02068FB00DB1B9B00E3188B
:1022A0000933FF331B789A00125A52046AD5502220
:1022B000825ADB00C318D3182D4A944663441B8806
:1022C0009B059A0D9246002B38D1FB00DB1B9B002F
:1022D000E3180933FF331B789B002168CA5A27484B
:1022E0001040274A0243CA525046F900C91B8900D0
:1022F00061180A002132FF321368534413600B0047
:102300001933FF331A6852441A601D31FF310B68CC
:10231000002B08D0F900C91B890061181531FF3165
:10232000096888424BD2FB00DB1B9B00E318093392
:10233000FF331978200002F0C9FB4BE7FB00DB1BE1
:102340009B00E3181A000F32FF3212881933FF3353
:1023500019685346FFF746FEB7E7C046FFBFFFFFC9
:10236000FFDFFFFFFFF7FFFFFFFEFFFF0F8FFFFF06
:1023700002040000060400008F0F00000F0F000091
:10238000C080FFFF5022825ADB00C318D318904A46
:10239000944663441B889B059A0D9246002B94D06B
:1023A000FB00DB1B9B00E3181A001132FF3212887E
:1023B0001933FF3319685346FFF714FE85E7F90018
:1023C000C91B890061180931FF3109782000FFF726
:1023D0008BFBFFE62068FB00DB1B9B00E318283328
:1023E0001B789A00125A520600D4A7E05022825A53
:1023F000DB00C318D318774A944663441B889B05B7
:102400009B0DFA00D21B9200A2181364002B00D07F
:102410008EE0FB00DB1B9B00E31828331B789B003E
:102420002168CA5A6C4810406C4A0243CA52502371
:102430002268D25AFB00D81B8000201801002831E6
:102440000978CB009C4623689946CC446244614B92
:102450009C46624412889205920D0264836B9C46EE
:1024600062448263C36B002B00D080E0200002F046
:102470003BFB20684423C35A9BB22B801BB2002B2A
:1024800000DBDAE52B8847461F404246134200D066
:1024900097E62B88DB0600D430E603883380338848
:1024A0001B0500D558E633881BB2002BE1DA038800
:1024B0004B4A1340038020685023C35A84225200A1
:1024C000A25CD20082189B18414A944663441B8840
:1024D0009B059B0D22000932FF329361002B00D037
:1024E0005BE60021200002F0F1FA236850229A5A9C
:1024F00037498C4663449B1822000932FF32D16869
:102500003E2900D854E64A0992B2C90601D1013ADF
:1025100092B2920233490A431A8021680A88324BE8
:102520001A40C0239B015A40304B13430B80A0E755
:102530001100D28D896BFFF793FC6AE75022825A13
:10254000DB00C318D318224A944663441B889B05BA
:102550009B0DFA00D21B9200A2181364002B00D12D
:1025600057E71100128E896BFFF77AFC51E72000C4
:10257000FFF78EFC7DE744215A5A1D4802405A520B
:10258000200002F0C4FA00212000FFF73AF85AE5D3
:102590004022995A042081439952164B21688B524C
:1025A000200002F0D3FA216844228B5A12480340DB
:1025B0008B5262E5200002F0B7FA78E544215A5ABE
:1025C0000E4802405A52200002F09AFA75E5C046C1
:1025D00006040000020400000F0F000080C0FFFF8F
:1025E0008F0F00000080FFFF8FBFFFFF8080FFFF85
:1025F000FFFBFFFF00BDFFFFFFEFFFFFFFFDFFFF42
:1026000010B50C060CD57F242140CC00611A89003E
:1026100028314018002A0AD182728380002010BD20
:10262000CC00611A89000931FF314018F2E701221C
:102630008272C3801B0C0381F0E70000F0B5CE4628
:10264000474680B583B004000368DB072BD5BE4B3B
:102650005A680C231340042B1DD0BB4B5A680C2323
:102660001340082B0ED06368012B43D0002B5AD1A6
:10267000B54B1A68B5490A401A601A68B4490A404D
:102680001A603DE0B04B5B68C022520213408022CA
:1026900052029342E7D1AC4B1B689B0303D563689E
:1026A000002B00D15DE223689B077DD5A64B5B68BC
:1026B0000C221A4268D0A44B5A680C231340082BF2
:1026C00059D0E368002B00D195E09F4A136801219F
:1026D0000B431360FDF7D6FD05009B4F02263B68B8
:1026E0001E4200D07EE0FDF7CDFD401B0228F6D94A
:1026F000032072E0944A116880235B020B4313604D
:102700006368002B27D0FDF7BDFD05008E4F8026A6
:10271000B6023B683342C6D1FDF7B4FD401B6428C6
:10272000F7D9032059E0052B09D0874B1A68874950
:102730000A401A601A6886490A401A60E0E7824B2C
:1027400019688022D2020A431A6019688022520254
:102750000A431A60D4E7FDF795FD05007A4F8026FD
:10276000B6023B6833429ED0FDF78CFD401B6428C7
:10277000F7D9032031E0744B5B68C022520213404A
:102780008022120293429CD16F4B1B689B0703D59A
:102790000120E368012B20D16B490A682369DB0023
:1027A000F820824313430B6023681B074BD5E36972
:1027B000002B34D0644A536A01210B435362FDF766
:1027C00061FD0500604F02267B6A1E423BD1FDF78A
:1027D00059FD401B0228F7D9032003B0C0BCB946FD
:1027E000B046F0BD58490A682369DB00F8208243EF
:1027F00013430B60D8E7544A136801218B431360DD
:10280000FDF740FD0500504F02263B681E42CBD02D
:10281000FDF738FD401B0228F7D90320DDE74A4ABF
:10282000536A01218B435362FDF72CFD0500464F8F
:1028300002267B6A1E4206D0FDF724FD401B0228BB
:10284000F7D90320C9E723685B0700D489E03E4B32
:10285000DB6900229146DB000BD43B4AD169802022
:1028600040050143D161D36903400193019B0123DA
:102870009946384B1B68DB050ED5A368012B21D088
:10288000002B39D1304B1A6A01218A431A621A6A25
:1028900003318A431A621AE02E4A116880235B00D2
:1028A0000B431360FDF7EEFC06002A4D80277F00E6
:1028B0002B683B42E1D1FDF7E5FC801B6428F7D98A
:1028C00003208AE7204A136A01210B431362A3689D
:1028D000002B27D0FDF7D6FC06001B4B984602279D
:1028E0001D4D43461B6A1F4238D1FDF7CBFC801BB0
:1028F000A842F6D9032070E7052B09D0124B1A6ABB
:1029000001218A431A621A6A03318A431A62DEE796
:102910000D4B1A6A04210A431A621A6A03390A43E0
:102920001A62D4E7FDF7AEFC0600074B9846022773
:10293000094D43461B6A1F4210D0FDF7A3FC801BC4
:10294000A842F6D9032048E700100240FFFFFEFF2F
:10295000FFFFFBFF00700040881300004B46012B77
:102960003CD02368DB0610D56369012B3CD00533CE
:102970005BD17E4A536B04218B435363516BA36934
:10298000DB00F82081430B43536323689B0674D517
:10299000764B5A680C2313400C2B65D0734B5A6846
:1029A0000C231340082B58D0236A002B00D186E05B
:1029B0006E4A516B80235B020B435363FDF762FC4D
:1029C00005006A4F802676027B6B334255D1FDF7B6
:1029D00059FC401B0228F7D90320FEE6634AD3695D
:1029E00063490B40D361BCE7604B5A6B04210A4337
:1029F0005A635A6B03390A435A63FDF743FC0500D7
:102A00005A4F02267B6B1E4206D1FDF73BFC401B52
:102A10000228F7D90320E0E654494A6BA369DB009A
:102A2000F820824313434B63AFE7504B5A6B0421AA
:102A30000A435A635A6B03398A435A63FDF722FCEF
:102A400005004A4F02267B6B1E429ED0FDF71AFC02
:102A5000401B0228F7D90320BFE6444B5B68C02225
:102A60005202134093429FD1404B5B6BDB0304D572
:102A70000120236A012B00D0AFE6636A0020002BFF
:102A800000D1AAE6394A51680C220A40082A6AD0C5
:102A9000022B29D0354A136836490B401360FDF7E5
:102AA000F1FB0400314E8025AD0433682B4256D033
:102AB000FDF7E8FB001B0228F7D903208DE62B4A1F
:102AC000536B2D490B405363FDF7DCFB0500274F8B
:102AD000802676027B6B3342CFD0FDF7D3FB401BC1
:102AE0000228F7D9032078E6204A136821490B40D1
:102AF0001360FDF7C7FB05001C4F8026B6043B683A
:102B0000334206D0FDF7BEFB401B0228F7D9032055
:102B100063E6164BDA6A0F218A43216B0A43DA62B5
:102B20005968E26AA06A0243144801400A435A60A5
:102B30001968802252040A431A60FDF7A3FB0400BF
:102B40000A4E8025AD0433682B4206D1FDF79AFB6F
:102B5000001B0228F7D903203FE600203DE60020B5
:102B60003BE6012039E6012037E6C046001002406E
:102B7000FFFFFFEFFFFFFFFEFFFFFEFFFF7FC2FF34
:102B800010B588B004AA204B13CB13C21B68136086
:102B90006A461E4B13CB13C21B6813601C4B5B6849
:102BA0000C20184008280AD00C38431E9841404297
:102BB000184B1840184B9C46604408B010BD990C47
:102BC0000F22114004A8445C1149C96A0A406946B1
:102BD000895CC0225202134080225202934208D0E4
:102BE000C0225202934209D00C48FDF795FA604387
:102BF000E3E70A48FDF790FA6043DEE70648FDF791
:102C00008BFA6043D9E7C046D4570008E85700085C
:102C10000010024000A69DFD006CDC0200127A004C
:102C2000F8B5CE46474680B504000D005E4B1A68E5
:102C3000012313408B420BD25B490B680122934363
:102C40002B430B600B681A400120AA4200D0A5E07C
:102C500023689B0706D5554A5368F0218B43A1682A
:102C60000B4353602368DB0770D56268012A09D0E3
:102C7000022A2CD0032A30D04C4B1B689B0706D469
:102C800001208BE0494B1B689B0300D48AE0474935
:102C90004B680320834313434B60FDF7F3FA0600B0
:102CA0006368012B1FD0022B2ED0032B3DD03F4B4E
:102CB00098460C273E4B994643465B681F4245D0D9
:102CC000FDF7E0FA801B4845F6D9032066E0374B54
:102CD0001B689B01DBD4012060E0344B5B6BDB03A2
:102CE000D5D401205AE0314B98460C27304B9946F9
:102CF00043465B683B40042B28D0FDF7C3FA801B9A
:102D00004845F5D9032049E0284B98460C27284B25
:102D1000994643465B683B40082B17D0FDF7B2FA53
:102D2000801B4845F5D9032038E0204B98460C27F6
:102D30001F4B994643465B683B400C2B06D0FDF782
:102D4000A1FA801B4845F5D9032027E0164B1A68E5
:102D500001231340AB4208D9134B1A6801218A435F
:102D60001A601B680120194218D123685B0706D539
:102D70000E4A53680F490B40E1680B435360FFF75D
:102D8000FFFE0A4B5B681B061B0F0B4AD35CD84047
:102D90000A4B18600020FDF74BFA0020C0BCB94672
:102DA000B046F8BD0120F9E70020024000100240C3
:102DB00088130000FFF8FFFF785800081401002076
:102DC000014B18687047C04614010020044B5B6833
:102DD0005B055B0F034AD35C034A1068D840704719
:102DE000001002408858000814010020F0B5CE46BB
:102DF000474680B583B004000368DB0338D54B4BEE
:102E0000DB690025DB000AD4484AD16980204005EF
:102E10000143D161D36903400193019B0135444BC8
:102E20001B68DB0552D5414B1A6AC0239B00110079
:102E300019401A4213D0626813408B420FD03B4BAB
:102E4000186A3C4A02401E6A8021490231431962D5
:102E5000196A394E314019621A62C3074ED4334A97
:102E6000136A34490B4061680B431362012D58D03B
:102E70002368DB0706D52D4A136B03218B43A1681A
:102E80000B43136323689B0606D5284A136B102156
:102E90008B43E1680B43136323689B0306D5234AE6
:102EA000136B80218B4361690B43136300202368FC
:102EB0005B0506D51D4A136B40218B4321690B43EB
:102EC000136303B0C0BCB946B046F0BD184A1168E0
:102ED00080235B000B431360FDF7D4F90600144B0D
:102EE000984680277F0043461B683B429BD1FDF7F5
:102EF000C9F9801B6428F6D90320E2E7FDF7C2F97F
:102F000006000A4B984602270C4B994643461B6A1B
:102F10001F42A4D1FDF7B6F9801B4845F6D903201E
:102F2000CFE7D36906490B40D361A1E70010024007
:102F300000700040FFFCFFFFFFFFFEFF8813000052
:102F4000FFFFFFEF0268136806490B401360026839
:102F500093682331FF318B4393606A232022C2544C
:102F60007047C046DFFEFFFF70B504001300692202
:102F7000825C202A3CD100293CD0002B3CD080220E
:102F80005201806890422CD06822A25C012A35D080
:102F900068260122A255E1644F32A3520232A352A5
:102FA0000025E56617322121A154226E1449916251
:102FB000226E1449D162226E13491163226E556349
:102FC00022682832E16C206EFDF7E8FE236840227B
:102FD0001A62A5552268936880210B4393600020F4
:102FE00007E02269002ACFD1CA07CDD5012000E031
:102FF000022070BD0120FCE70120FAE70220F8E77B
:103000002531000857310008B3310008F8B5040035
:103010006A20205C202842D1002942D0002A42D0D8
:1030200080235B01A068984232D06823E35C012BC7
:103030003BD068270126E65561655823E2520025FA
:10304000E56612332221E154636E19499962636E79
:103050001849D962636E18491963636E5D6321680C
:1030600024311300626D606EFDF798FEE55522680D
:10307000116880235B000B4313602268936833431D
:1030800093602268936840210B439360002007E01F
:103090002369002BC9D1CB07C7D5012000E002204E
:1030A000F8BD0120FCE70120FAE70220F8E7C0465E
:1030B00061310008A7310008B331000810B50400E1
:1030C0006923C35C212B05D06A23E35C222B17D034
:1030D000002010BD03689A681206F5D59A68802111
:1030E0008A439A60006E002801D0FDF7A0FE226896
:1030F0001368C0218B43136069232022E254E3E765
:1031000023689A685206E3D59A6840218A439A60F8
:10311000606E002801D0FDF78AFE2000FFF712FF45
:10312000D6E7704710B50300406A1B681B689B0612
:103130000DD452230022C2520268936880218B432F
:1031400093600268136840390B43136010BDFFF7AA
:10315000E8FFFBE7704710B5406AFFF7FBFF10BDC3
:1031600010B50300406A1B681B689B0615D45A23E0
:103170000022C2520268136809490B4013600268BA
:1031800093680331FF318B439360026893683F314A
:103190008B4393606A232022C25401F09DFA10BD34
:1031A000FFFEFFFF704710B5406AFFF7FBFF10BD41
:1031B000704710B5446A6923E35C212B0BD06A2366
:1031C000E35C222B16D0E36E10221343E36620004B
:1031D000FFF7EEFF10BD23689A681206EFD5522262
:1031E0000021A1521A68C0318A431A606923202243
:1031F000E254E4E723689B685B06E4D55A23002287
:10320000E2522000FFF79EFEDDE710B5406A002382
:103210005A228352083A8352FFF7CAFF10BD0000BA
:1032200070B5040001680A68836800690343606937
:103230000343E06903436548024013430B6022687F
:10324000536863490B40E1680B43536021688A6807
:10325000A369206A03435F48024013438B602568DB
:103260005D4B9D4218D05D4B9D4200D17AE080239A
:103270001B02E2699A424CD01025002D00D0A2E03A
:10328000FFF7A4FD616824684B081818FCF744FF99
:103290000004000CE06037E0514B1A6B032313402D
:1032A000022B47D065D8002B14D0012B53D180239B
:1032B0001B02E2699A4200D16BE0FFF761FC616892
:1032C00024684B081818FCF727FF0004000CE06086
:1032D000002519E080231B02E2699A4200D070E0C9
:1032E000FFF774FD400063685B08C0186168FCF775
:1032F00013FF80B200250F2302009A4313002268B7
:103300000007400F1843D060280070BD0125002041
:10331000F1E701250020EEE76168480880231B02E1
:103320009C466044FCF7F8FE0004000C2A4BD86071
:103330000025E9E780231B02E2699A42ECD1636829
:10334000580880235B029C4660446168FCF7E4FEF9
:1033500080B20025CFE780231B02E2699A42D5D0D4
:103360000125D1E780231B02E2699A42B8D00025EB
:1033700083E780231B02E2699A4216D163685808EA
:10338000184B9C4660446168FCF7C6FE80B200257D
:10339000B1E7FFF7F5FB400063685B08C0186168A0
:1033A000FCF7BAFE80B20025A5E7616848080E4B1D
:1033B0009C466044FCF7B0FE0004000CE860002569
:1033C000A2E7002559E701259EE7C046F369FFEF14
:1033D000FFCFFFFFFFF4FFFF003801400044004033
:1033E000001002400024F40000127A00436ADB0758
:1033F00006D5026853682C490B40816A0B43536021
:10340000436A9B0706D50268536828490B40C16A86
:103410000B435360436A5B0706D50268536824492F
:103420000B40016B0B435360436A1B0706D50268D0
:10343000536820490B40416B0B435360436ADB06E2
:1034400006D5026893681C490B40816B0B4393605F
:10345000436A9B0606D50268936818490B40C16B06
:103460000B439360436A5B060BD5026853681449AB
:103470000B40016C0B43536080235B03026C9A4248
:103480000AD0436A1B0606D5026853680D490B40F3
:10349000816C0B4353607047026853680A490B40C4
:1034A000416C0B435360ECE7FFFFFDFFFFFFFEFFA6
:1034B000FFFFFBFFFF7FFFFFFFEFFFFFFFDFFFFFD0
:1034C000FFFFEFFFFFFFF7FFFFFF9FFFF8B5CE46BF
:1034D000474680B580460D0016009946089F434632
:1034E0001B68DC692C40641B62425441B44221D108
:1034F0007A1CF6D0002F05D0FCF7C4FE4B46C01A4C
:10350000B842ECD943461A6813680D490B40136062
:1035100043461A689368A331FF318B43936020239D
:10352000692241468B5401328B5448330022CA54DD
:10353000032000E00020C0BCB946B046F8BDC0463C
:103540005FFEFFFF30B583B004000023C366FCF7C5
:1035500099FE0500174A236893420AD02023692266
:10356000A3540132A35448330022E254002003B094
:1035700030BD13681B0710D423681B685B07EDD5AB
:1035800080210D4B00932B000022C9032000FFF780
:103590009DFF0028E2D00320E9E78021064B00933D
:1035A0000300002289032000FFF790FF0028E3D0EA
:1035B0000320DCE700380140FFFFFF0110B5041EC7
:1035C00030D06923C35C002B22D069232422E2542B
:1035D0002268136801218B4313602000FFF720FE4F
:1035E000012814D0636A002B18D1226853680E4951
:1035F0000B405360226893682A218B4393602268B2
:10360000136829390B4313602000FFF79BFF10BD9F
:1036100068330022C25401F0D1F8D6E72000FFF74A
:10362000E5FEE2E70120F2E7FFB7FFFF6923C35C95
:10363000212B2FD13133C35A9BB2002B0BD10268FF
:10364000136880218B4313600268136840390B4371
:10365000136000201FE080235B0182689A420CD037
:10366000C36C5A1CC2641B78026813855222835AA9
:10367000013B9BB2835200200DE00369002BEFD188
:10368000C36C1B88DB05DB0D02681385C36C02333A
:10369000C364EBE70220704710B50268136840214D
:1036A0008B43136069232022C254FFF73AFD0020A8
:1036B00010BD000010B503006A22825C222A34D1BA
:1036C0003A32815A0268928C92B2802040019C6802
:1036D00084420DD0586D441C5C650A4002705A212A
:1036E0005A5A013A92B25A520020002A0AD010BD0A
:1036F00018690028EED10A40596D0A805A6D0232CD
:103700005A65ECE719680A680B4802400A601968B4
:103710008A682330FF3082438A606A2220219954CC
:10372000180000F0D9FF0020E1E702689369082142
:103730000B4393610220DAE7DFFEFFFF70B5040060
:103740000268D3691068190700D079E0990601D59D
:1037500081060DD49668D90201D571025CD41A068F
:1037600001D5020664D45B0601D5430664D470BD5E
:103770002000FFF79FFFFAE75A0708D5002D06D073
:10378000226804211162E26E02390A43E2661A07D6
:1037900009D520220240154305D022680821116274
:1037A000E26E0A43E266E26E002AE0D09B0601D593
:1037B00083061FD4E36E1B0703D423689B685B0654
:1037C00024D52000FFF7BEFB23689A68520619D55E
:1037D0009A6840218A439A60636E002B0ED02A4A71
:1037E0005A63606EFDF73AFB0028C0D0606E436BF1
:1037F0009847BCE72000FFF75DFFDBE72000FFF7FD
:10380000D7FCB4E72000FFF7D3FCB0E72000FFF7B8
:10381000CFFC0023E366AAE780235B031362202327
:103820006922A3540132A354200000F02FF89EE730
:103830002000FFF7FBFE9AE72000FFF72DFF96E739
:10384000966801253540902149000140294300D167
:1038500081E7D90706D5C10504D501211162E26EC1
:103860000A43E2669A0787D5002D90D0226802218C
:103870001162E26E02310A43E266194200D07FE72C
:103880001A078AD48FE7C0460B3200087047862398
:103890009B00C358002B05D085229200002199502F
:1038A000002070470220FCE710B587239B00C35817
:1038B000002B0FD0862292008458183AA05CFF2873
:1038C00008D0054AA25C9B682100984780239B0092
:1038D000FF22E254002010BD0102000043230380B8
:1038E0000048704738000020432303800048704799
:1038F0007C0000204323038000487047CC00002058
:103900000A23038000487047C000002070B50400FF
:103910008626B600855901F0FBF983239B00E85009
:10392000A359002B0AD083239B00E918083BE858D1
:103930001833E358DB689847002070BD0220FCE78D
:1039400070B505000C000B786022110019401A4276
:103950002CD020292DD1E288002A1ED0F931FF3148
:1039600046585BB2002B0CDA607887239B00EB583B
:103970009B6831009847E2883100280000F0DDFCA8
:1039800017E0627880239B00F254E2880C4BF254DB
:10399000E288310000F0E7FC0BE0607887239B00B1
:1039A000EB589B6800222100984702E063780A2BBD
:1039B00001D0002070BD0122024900F0BEFCF8E7F2
:1039C00001020000A001002070B50400812101F077
:1039D00038F90121200001F034F98221200001F0A2
:1039E00030F986239B00E358002B0BD087239B00E4
:1039F000E3585B6898478625AD00605901F094F95B
:103A000000236351002070BD70B50400037C002BBF
:103A100033D18025AD002B000222812101F001F974
:103A20002B0002220121200001F0FBF808230322D1
:103A30008221200001F0F5F88720800001F070F964
:103A4000050086239B00E05000282DD00433E35866
:103A50001B689847002385229200AB500432AB507C
:103A6000267C002E15D18033143AAA589B000121E0
:103A7000200001F040F9300070BD40230222812176
:103A800001F0CFF8402302220121200001F0C9F803
:103A9000CCE781239B00EA58C53BFF3B0121200076
:103AA00001F029F90026E6E70126E4E7002904D021
:103AB00087239B00C150002070470220FCE786232B
:103AC0009B00C358822080001950842189005A50DD
:103AD0000020704786239B00C258143BD150002021
:103AE000704710B5040086239B00C258002A15D0E9
:103AF000043BD3580120002B00D010BD85239B0030
:103B00000121D150043BD35A82218900525888396F
:103B1000FF39200001F0E2F80020EEE70220ECE798
:103B200010B586239B00C258002A17D0047C002CB5
:103B30000AD1993BFF3B8121890052589B0001210A
:103B400001F0D9F8200010BD81239B00D258C53B5D
:103B5000FF3B012101F0CFF80024F3E70224F1E755
:103B600010B5002816D085239B00C358002B03D026
:103B700085239B000024C450002902D084239B008D
:103B8000C150FE235B000121C154027000F0F4FF1C
:103B9000002010BD0220FCE7002904D085239B00F3
:103BA000C150002070470220FCE710B501F02CF84E
:103BB000002010BD10B585239B00C358002B04D0F6
:103BC0001B689847002802D110BD0220FCE70220A4
:103BD000FAE710B585239B00C3585B68984700201F
:103BE00010BD000070B5040082239B00C51828009A
:103BF00000F013F9FA235B000122E250124BE25A63
:103C0000163BE2501033E15CEA3BFF3B0B40012BDB
:103C10000FD0022B12D0002B05D07F239943200018
:103C200001F01CF803E02900200000F015F9002045
:103C300070BD2900200000F0ABFAF8E72900200051
:103C400000F0C4FAF3E7C0460E02000010B504000D
:103C5000130000292AD1FA2252008258032A01D0E7
:103C6000002010BD421DFF329168D26891420ED8EB
:103C700085239B00C3581B69002B04D0FE225200F1
:103C8000825C032A10D0200000F085FBE8E7891A47
:103C90000530FF3081608A4200D90A0092B21900D3
:103CA000200000F070FBDBE79847ECE785239B00E2
:103CB000C3589B69002BD3D0FE225200825C032A9A
:103CC000CED19847CCE770B50400130000294FD13E
:103CD000FA2252008258022A06D080239B00E35C1D
:103CE000012B40D0002070BDC269056AAA421CD8D1
:103CF000866929003000FCF795FA002906D1B54203
:103D000004D8FC235B00E3589E421BD385239B0011
:103D1000E358DB68002B04D0FE225200A25C032A89
:103D20001ED0200000F043FBD7E7521BC26192B2C5
:103D3000190000F010FB002300220021200000F0F9
:103D4000DAFFCAE70022200000F005FBFC235B003D
:103D50000022E25000230021200000F0CCFFBCE74D
:103D600020009847DDE780239B000022E254B9E75A
:103D700085239B00C3585B69002BB3D0FE22520001
:103D8000825C032AAED19847ACE770B504004023AB
:103D90000022002100F045FF402588235B00E5500C
:103DA000D03B00228021200000F03BFF2562FE2353
:103DB0005B000122E2541C33E358002B06D021792A
:103DC00085239B00E3585B6820009847002070BD66
:103DD000017400207047FE235B00C15CFE22FF32AD
:103DE0008154FA3AFF3AC25400207047FE23FF3351
:103DF000C25C013BC2540020704710B5FE235B003B
:103E0000C35C032B01D0002010BD85239B00C35849
:103E1000DB69002BF7D09847F5E70B7803704B78F8
:103E20004370CA7812028B789B1843804A79120239
:103E30000B799B188380CA7912028B799B18C380F7
:103E4000704710B50400802100F008FF0021200019
:103E500000F004FF10BD000030B583B005000C0079
:103E60004B78092B00D98BE19B00C14AD3589F4660
:103E70004B881A0A072A00D999E09200BD498A584E
:103E80009746007C84239B00EB581B686A46911D73
:103E900098476B4606331B88002B00D174E1E288FB
:103EA000002A00D170E1191C934200D9111C8AB27A
:103EB0006B46D9800100280000F03FFA64E1037CE2
:103EC000002B09D185239B00C3589B6A6A46901D2D
:103ED000984702234370DCE785239B00C358DB6AC5
:103EE0006A46901D984702234370D2E7DAB2052A4A
:103EF00039D89300A04AD3589F46007C84239B0066
:103F0000EB585B686A46911D9847C2E7007C8423A2
:103F10009B00EB589B686A46911D9847B9E7007C67
:103F200084239B00EB58DB686A46911D9847B0E7F5
:103F3000007C84239B00EB581B696A46911D9847BF
:103F4000A7E7007C84239B00EB585B696A46911DC0
:103F500098479EE7007C84239B00EB589B696A4648
:103F6000911D984795E72100FFF76BFF0CE1037C5B
:103F7000002B07D185239B00C3585B6B6A46901DBD
:103F8000984786E72100FFF75CFFFDE0037C002BEC
:103F900009D185239B00C3581B6B6A46901D984727
:103FA0000723437075E72100FFF74BFFECE021008A
:103FB0002800FFF746FFE7E08B88002B22D1CB8853
:103FC000002B1FD1FD33FF33C35C032B12D04B8872
:103FD0007F241C40FF235B00C454210000F071FECD
:103FE000280000F0D8F9002C07D0FE235B00022245
:103FF000EA54C9E0FFF725FFC6E0FE235B0001227B
:10400000EA54C1E021002800FFF71BFFBCE08B78D9
:104010005A4A1370012B09D8FE225200825C022AF0
:1040200007D0032A1ED0FFF70CFFADE0FFF709FF12
:10403000AAE0002B13D001234360FC33FF3303229B
:10404000C2540121FFF7B6FD022803D0280000F07A
:10405000A2F999E021002800FFF7F3FE94E000F0B8
:104060009AF991E0002B11D04168012920D0C9B202
:10407000FFF7AFFD414B197869602800FFF79AFD03
:10408000022810D0280000F086F97DE0FD33FF33D0
:104090000222C254002343600021FFF79AFD28004A
:1040A00000F079F970E021002800FFF7CAFE6BE00C
:1040B00000F071F968E0CB88012B09D1FE235B0089
:1040C000C35C022B07D0032B0DD0FFF7BAFE5BE0D9
:1040D000FFF7B7FE58E0002383600100083101229A
:1040E00000F02BF950E0011D012200F026F94BE011
:1040F000FE235B00C35C023B012B0FD80123C3608E
:1041000081239B00C358002B01D00323C3602900E7
:104110000C310222280000F010F935E0FFF791FE83
:1041200032E04B88012B2FD181239B000122C2500A
:104130001033C3589B689847280000F02CF923E0FF
:10414000FE235B00C35C023B012B0ED84B88012B86
:104150001AD181239B000022C2501033C3589B68A0
:104160009847280000F017F90EE0FFF76AFE0BE011
:10417000FC5700082458000844580008A1010020FA
:1041800021002800FFF75DFE002003B030BDC046CF
:1041900070B504000D00FE235B00C35C032B11D13E
:1041A0000B79012B0BD885239B00C3589B6898473C
:1041B000EB88002B08D1200000F0EDF804E0FFF7B9
:1041C00040FE01E0FFF73DFE002070BD70B5050028
:1041D0000C0088880979227860231340202B08D0AE
:1041E0006378012B32D0032B0BD0002B54D000204E
:1041F00070BDF533FF33EB589B68210028009847CA
:10420000F5E7FE235B00EB5C022B06D0032B0AD004
:1042100021002800FFF715FEE9E74B06E7D028004C
:1042200000F01CFDE3E76388002B04D14B0602D0AD
:10423000280000F013FD85239B00EB589B682100AC
:1042400028009847280000F0A6F8D0E7FE235B007E
:10425000EB5C022B06D0032B0AD021002800FFF7CD
:10426000F0FDC4E74B06C2D0280000F0F7FCBEE723
:104270006388002BBBD14B0603D1280000F08BF8DC
:10428000B5E7280000F0F7FC85239B00EB589B68FE
:10429000210028009847F0E7FE235B00EB5C022B2F
:1042A00006D0032B0AD021002800FFF7CAFD9EE7A5
:1042B0004B069CD0280000F0D1FC98E7030611D4EF
:1042C0007F240C4024010534FF342C19280000F011
:1042D000DFFC431E9841206002222100280000F0EC
:1042E0002CF884E77F240C40240114342C19EDE7CA
:1042F00070B5002820D00478002C08D003000126D7
:10430000361A9C19E4B201331D78002DF9D16400EE
:10431000023414800C7003234B700478002C0BD0F3
:10432000013B002501305A1CD2B2CC540233DBB21F
:104330008D540478002CF5D170BD10B51300FA220D
:104340005200022484508361C3610A00002100F0FE
:10435000C5FC002010BD10B513000A00002100F0BC
:10436000BDFC002010BD10B51300FA22520003243A
:104370008450EC3A8350043283500A00002100F04C
:10438000BAFC002010BD10B513000A00002100F097
:10439000B2FC002010BD10B5FA235B000422C2500D
:1043A00000230022002100F099FC002010BD10B570
:1043B000FA235B000522C25000230022002100F0F6
:1043C0009AFC002010BD00B587B06846FCF784FF5A
:1043D0000423009373336A465373FCF7D9FDFCF74B
:1043E000F5FDFCF783FE6846FCF7B4FEFCF702FE21
:1043F000FCF7E2FDFCF738FE07B000BD00B587B062
:104400006846FCF769FF6B465B7B7F2B01D107B0E9
:1044100000BD042300937B336A465373FCF7B8FD59
:10442000FCF7D4FDFCF762FE6846FCF793FEFCF750
:10443000E1FDFCF719FEEAE700B599B028230B93DC
:10444000273B13931293002314930BA8FEF7F6F85F
:10445000002829D107230793043B089300230993DD
:104460000A93012107A8FEF7DBFB00281DD180235A
:104470009B0201930023069301A8FEF7B7FC0028D6
:1044800014D1FEF79DFCFA218900FBF745FEFCF7ED
:104490001BFC0420FCF734FC0120002200214042D8
:1044A000FCF7CCFB19B000BDFEE7FEE7FEE700001D
:1044B00070B588B0714B1B681B681B021622134332
:1044C0006F4A1360FFF79AFFFBF7C4FEFFF7B4FFD4
:1044D0006C4B59698020C003014359615A690240FD
:1044E0000092009A596980208002014359615A69FB
:1044F00002400192019A5A698021C9020A435A6115
:104500005B690B400293029B5F4E00220121300049
:10451000FCF7DEFF0125039504950024059406941D
:1045200003A93000FCF7F4FE5848594B03600323FD
:104530004360846080235B04C360A0231B0303618A
:10454000C0239B0343618461C56104624462846249
:10455000C462FBF737FF002874D14A4A516901232E
:1045600019435161526913400393039B00220021B8
:104570000B20FCF763FB0B20FCF792FB4548464BF6
:104580000360E1235B02436000238360C360036137
:104590000C2242618361C36103624362FFF70EF83C
:1045A000002850D100F0E2F93C483D4B0360042361
:1045B00043603C4BC3608360FCF790FF002843D10D
:1045C000324C394B2363394B6363394B00221A70E9
:1045D00000F0A0FF022202211E20FCF72FFB002189
:1045E0002000FCF7C3F82C4C23680125AB43236063
:1045F00063681022134363606268D0231B05134372
:10460000636022688023DB01134323602368202238
:10461000934323600120FBF73BFE23682B43236079
:104620001E2224491B48FEF7F1FC032203211C2013
:10463000FCF704FB204B802252051A601F4E1C4DD4
:10464000124C11E0FEE7FEE7FEE7606B00F008FFAA
:10465000174A137801218B43137000212000FCF7C7
:1046600085F80E48FCF76AFF300000F095FC00F07A
:104670002BFC2B78002BE8D1F3E7C046100100207B
:10468000340300200010024000140048E80100201C
:1046900000640040C402002000440040B402002036
:1046A00000300040FF0F0000C8010020A4010020DE
:1046B000E40100203803002000E100E0BC0C0020F1
:1046C00010B5044A137801210B4313700021FCF745
:1046D0004DF810BDE401002070B504000C4D280019
:1046E00000F022FC1E220021280001F05EF81E22AC
:1046F00029002000FEF78AFC2268936908210B43F9
:1047000093612268936908310B43936170BDC04681
:1047100038030020FEE7000000B583B0124B996912
:1047200001221143996199690A400092009ADA695D
:10473000802149050A43DA61DB690B400193019B43
:104740000520002200214042FCF778FA02200022D6
:1047500000214042FCF772FA012000220021404271
:10476000FCF76CFA03B000BD0010024000B587B042
:104770000F4B02689A4201D007B000BD0D4AD169C3
:10478000802080040143D161D36903400093009BE2
:10479000C0239B000193022302930023039303335E
:1047A00004930133059301A90348FCF7B1FDE3E746
:1047B00000640040001002400004004830B587B09B
:1047C0000400284B02689A4201D007B030BD264A47
:1047D000D169802080020143D161D36903400093F5
:1047E000009B0C2301930A3B0293002503950133A0
:1047F0000493023B0593902001A9C005FCF788FDB6
:104800001A481B4B03601023436085607033C360FC
:10481000056145618561C561FCF788FA002816D1FC
:10482000124B23665C621348134B03600023436002
:1048300083608022C260036143618361C361FCF7CE
:1048400075FA002808D10B4B63665C62BDE7AE21A8
:104850000A48FFF75FFFE3E7BE210848FFF75AFF6A
:10486000F1E7C04600440040001002407002002002
:10487000440002402C020020580002405C5800080E
:104880007047FEE77047704710B5FBF7F3FCFCF785
:1048900048FA10BD10B50348FCF705FB0248FCF7C9
:1048A00002FB10BD700200202C02002010B502484F
:1048B000FDF7B6FB10BDC0467C06002010B50248CF
:1048C000FCF7ACF810BDC046E801002010B50C485C
:1048D000FCF734FE0B4BDB699B0303D40A48FEF75D
:1048E0002DFF10BD074A116A80239B020B43136200
:1048F000054C2000FEF7E2FB2000FFF7EDFEEDE7A0
:10490000B402002000440040C4020020114B1A6889
:1049100001210A431A605A680F4802405A601A6817
:104920000E4802401A601A680D4802401A605A6820
:104930000C4802405A60DA6A0F208243DA621A6B2E
:10494000094802401A635A6B8A435A6300229A60EC
:104950007047C046001002400CB8FF08FFFFF6FE8B
:10496000FFFFFBFFFFFFC0FF2CFEFFFF10B5094C50
:10497000002209492000FFF7F3F808492000FFF75B
:104980000BF907492000FFF791F82000FFF70DF918
:1049900010BDC04658030020280100200000002060
:1049A000180100200020704770B505000E000B684C
:1049B000002B15D0002406E0285D00F0C9FA013470
:1049C0003368A3420CD000F045FD0028F4D1285DE7
:1049D00000F0BEFA0028F2D0064800F0DDFAEEE75B
:1049E000054C29002000FFF775F82000FFF798F824
:1049F000002070BDBC0C00205803002010B52228F8
:104A000001D0002010BD00F055FAFAE710B5064CB1
:104A1000002206492000FFF752F805492000FFF761
:104A200059F8002010BDC04658030020FC050020A6
:104A30007C05002070B503000D000D4C8620800021
:104A40002458043824580120002C00D070BD094E91
:104A50000A001900300000F09FFE054C2A003100CA
:104A60002000FFF72CF82000FFF73BF8EEE7C046E8
:104A700058030020FC05002000B583B00C4B0268F1
:104A80009A4201D003B000BD0A4AD16980200004D7
:104A90000143D161D36903400193019B00220021AE
:104AA0001F20FCF7CBF81F20FCF7FAF8EAE7C04616
:104AB000005C00400010024010B50100ED31FF31F4
:104AC00087239B00C058FFF78DF810BD10B5CB00B1
:104AD0005B1A9B00C3181933FF331A6887239B00A6
:104AE000C058FFF7B3F810BD10B5CB005B1A9B00A0
:104AF000C3189A6B87239B00C058FFF7E4F810BDDA
:104B000010B587239B00C058FFF777F910BD70B52B
:104B100004008725AD0001214059FFF759F960597C
:104B2000FFF733F970BD000010B5040087239B0028
:104B3000C058FFF750F9A369002B04D0024A13694B
:104B400006210B43136110BD00ED00E010B5040019
:104B50008369002B05D187239B00E058FFF746F9B6
:104B600010BD044A136906218B431361FFF764FCEF
:104B7000F1E7C04600ED00E070B504001F48872350
:104B80009B00C4500433E0501D4B03600823436076
:104B9000022282600023C36002618361C3610362F9
:104BA000FCF7D4FC002823D18825AD00182300226F
:104BB00000216059FDF724FD58230022802160590F
:104BC000FDF71EFDC023002281216059FDF718FD6D
:104BD00088235B00002201216059FDF711FD80232D
:104BE00060595B0000228221FDF70AFD002070BDA4
:104BF0009A2149000348FFF78DFDD5E77C06002088
:104C0000005C00409058000810B588239B00C058F5
:104C1000FCF7EEFC002803D00238431E9841013017
:104C200010BD10B514001A0088239B00C058230043
:104C3000FCF702FD002803D00238431E98410130E2
:104C400010BD10B588239B00C058FCF777FE0028E4
:104C500003D00238431E9841013010BD10B588239F
:104C60009B00C058FDF72CF8002803D00238431EE3
:104C70009841013010BD10B588239B00C058FDF746
:104C800085F8002803D00238431E9841013010BD3A
:104C900088239B00C3584AB2002A09DB7F221140B7
:104CA000CA00511A89005B180B33FF33187870471C
:104CB0007F221140CA00511A89005B182A331878E4
:104CC000F5E710B588239B00C058FCF79AFC002834
:104CD00003D00238431E9841013010BD10B588241E
:104CE000A4000059FDF7D4F8002803D00238431E71
:104CF0009841013010BD10B58824A4000059FCF77C
:104D0000F3FE002803D00238431E9841013010BD45
:104D100010B588239B00C058FCF7C6FF10BD0000EB
:104D2000004870479C0800207047000012230B8049
:104D3000004870474401002004230B80004870475E
:104D40005801002010B50A00002805D10549064881
:104D5000FFF7CEFA034810BD02490348FFF7C8FA2F
:104D6000F8E7C046BC0A0020A458000810B50A00A5
:104D7000034C21000348FFF7BBFA200010BDC046DA
:104D8000BC0A0020BC58000810B50A00002805D154
:104D900005490648FFF7ACFA034810BD024903482D
:104DA000FFF7A6FAF8E7C046BC0A0020C85800087A
:104DB00010B50A00002805D105490648FFF798FA02
:104DC000034810BD02490348FFF792FAF8E7C046CE
:104DD000BC0A0020D858000810B50A00002805D1E8
:104DE00005490648FFF784FA034810BD0249034805
:104DF000FFF77EFAF8E7C046BC0A0020E458000836
:104E0000074B1B78DBB21F2B08D8054A1378DBB29F
:104E10000449C85413780133DBB213707047C0469D
:104E2000A80D0020880D002010B5092804D93730BE
:104E3000C0B2FFF7E5FF10BD3030C0B2F9E710B5E2
:104E400004000009FFF7F0FF0F202040FFF7ECFF00
:104E500010BD30B500231360002927D0040040188E
:104E6000C5B20AE008004138052815D8373B5B1861
:104E700013600134E3B29D4216D02078002814D08C
:104E800013681B0113602178080030380928E9D81D
:104E9000303B5B181360ECE708006138052807D841
:104EA000573B5B181360E4E7012030BD0120FCE7AD
:104EB0000020FAE710B51E20FBF7FCFE014B002294
:104EC0001A7010BDA90D002070B5134B1B78002B74
:104ED00019D0124AFE235B00D35C032B14D10F4A76
:104EE00086239B00D158852292008B58002BFCD141
:104EF000094D0B4C29782000FFF79CFD0028F9D1C3
:104F0000054B00221A7070BD034B1A7804490548FE
:104F1000FEF72AF8F4E7C046A80D00205803002049
:104F2000880D0020C402002070B50400074D6422E3
:104F30000021280000F039FC2000FBF7E5F8020012
:104F40002100280000F028FC002070BDBC0C0020CF
:104F500070B50D280CD00A2815D00C4B1B780C4AC4
:104F6000D0540020622B0FD80133084A13700BE095
:104F7000064C2278064900258D54064800F00CFCAA
:104F80002570012000E0002070BDC046840D002087
:104F9000200D0020BC0C0020F0B5C64600B594B032
:104FA00004000078002800D14AE20300433BDAB253
:104FB000332A00D93DE29300D74AD3589F46D74BB6
:104FC0001D780D3D6B425D416D4202239D430D35C1
:104FD000D24B1D702EE2D24B1B780725002B00D040
:104FE00028E26378303BDAB2092A00D92CE2930038
:104FF000CC4AD3589F46002000F02CFBC74B1D78AD
:1050000018E2012000F026FBC44B1D7812E20220BA
:1050100000F020FBC14B1D780CE2032000F01AFBCE
:10502000BE4B1D7806E2042000F014FBBB4B1D783C
:1050300000E2052000F00EFBB84B1D78FAE10620D7
:1050400000F008FBB54B1D78F4E1072000F002FBEF
:10505000B24B1D78EEE1082000F0FCFAAF4B1D7852
:10506000E8E1242000F0F6FAAC4B1D78E2E1AB4B0E
:105070001D78DFE1AA4B1B780725002B00D0D9E172
:10508000601C07AA0221FFF7E4FE002800D1D1E14D
:10509000E01C08AA0221FFF7DCFE002800D1C9E1CC
:1050A000601D09AA0221FFF7D4FE002800D1C1E14A
:1050B00060190AAA0421FFF7CCFE002800D1B9E14B
:1050C000994B079ADA60089A1A61099A5A610A9A02
:1050D0005A6000F00DFA914B1D78ABE15620FFF7B6
:1050E0008FFE0120FFF7ABFE0120FFF7A8FE8B4BE0
:1050F0001D789FE17620FFF783FE0420FFF79FFED7
:105100000120FFF79CFE6820FFF77AFE834B1D7895
:1051100090E14E20FFF774FE844D2868C0B2FFF77F
:105120008EFE28680012C0B2FFF789FE28680014BE
:10513000C0B2FFF784FE2868000EFFF780FE774BB1
:105140001D7877E1784B00229A6000F0D1F90725AD
:10515000002800D06EE11E30FBF7A2FD704B02224A
:105160001A706E4B1D7865E16F4B8022D2059A60F4
:105170001E20FBF795FD00F0BBF9694B02221A7067
:10518000664B1D7856E1664B1B780725002B00D037
:1051900050E1654B802212069A601E20FBF780FDCD
:1051A00000F0A6F95E4B01221A705C4B1D7841E1BC
:1051B0001E20FBF77FFD5A4B00221A70574B1D78BB
:1051C00038E1574B1B780725022B00D032E11E3304
:1051D0009843522804D0544B1B6B0022DA6003E042
:1051E000514B1B6B0222DA602378592B53D8601C79
:1051F0000AAA0821FFF72DFE002843D04A4B1A6B5C
:10520000042191601B6B0A9A5A600826701C2018B2
:105210000AAA0121FFF71DFE002833D0424B1A6B6A
:105220000A9911611B6BDD68002D1CD11B7C1F1CB2
:10523000082B00D90827FFB2002B14D00236A6197C
:10524000394B98460AAA02213000FFF702FE0028D7
:1052500018D043461B6B5B190A9A1A750135023642
:10526000EBB2BB42EED31E20FBF724FD00212E48FB
:10527000FBF764F906001E20FBF712FD0725002E40
:1052800000D0D7E02378592B15D85A20FFF7B8FD66
:10529000224B1D78CEE0601C0AAA0321FFF7D9FD3E
:1052A0000028EFD0204B1A6B002191601B6B0A9AEB
:1052B0001A600326AAE77A20FFF7A2FDE8E71A485A
:1052C000FBF7BAFC05004620FFF79AFDE8B2FFF7AE
:1052D000B6FD124B1D78ADE0601C0AAA0121FFF754
:1052E000B8FD0725002800D1A4E00C4B1D78A1E0F3
:1052F0006378642B08D0601C03AA0221FFF7A9FD84
:10530000002815D1072595E000F004F9034B1D781E
:105310004D20FFF775FD8DE0F45800085C0100207A
:10532000A90D0020C4590008E80100203403002022
:10533000E01C04AA0221FFF78CFD0028E2D0601DCA
:1053400005AA0121FFF785FD0028DBD0A01D08AAD2
:105350000821FFF77EFD0028D4D006AA01212000F5
:105360000E30FFF776FD0028CCD009AA08212000D6
:105370000F30FFF76EFD0028C4D007AA01212000DE
:105380001730FFF766FD0028BCD005AB1B785B0724
:1053900032D50899069800F0D7F801900999079836
:1053A00000F0D2F80290039B0F93049B139305AB7C
:1053B0001B78DA07D20F12929A07D20F10925A076F
:1053C000D20F11921B07DB0F0E9301AB1A880A92C2
:1053D0005B880B9302AB1A880C925B880D934D206F
:1053E000FFF70EFD0AA91948FAF764FF0725002800
:1053F00020D1174B1D781DE00899069800F0DBF8C6
:1054000001900999079800F0D6F80290CBE76378ED
:1054100007256F2B0ED1A3786F2B0BD1E378742B5C
:1054200008D1002323706370A370E370FEF7CBFFF5
:1054300000E00725002323702800FFF7E1FC01208E
:1054400014B080BCB846F0BD0725F3E7E8010020A2
:105450005C010020014B18787047C046A90D002060
:1054600070B505008368042B28D0C368022B38D0A0
:105470007420FFF7C5FC6B780F201840FFF7D4FCB1
:105480002878FFF7DCFC287CFFF7CEFC2B69002B8B
:105490000CD0EB68022B09D000242B19187DFFF7E4
:1054A000CEFC0134E4B22B699C42F6D10F4B187844
:1054B000FFF7A6FCFFF708FD002070BDC368022BB4
:1054C0000BD05420FFF79CFCEC1DEE1C2078FFF75E
:1054D000B6FC013CA642F9D1D5E75220FFF790FC7B
:1054E000F2E77220FFF78CFCC5E7C0465C010020A4
:1054F00070B5064C064D02E02800FCF71FF82000AE
:10550000FAF760FF0328F7D0002070BDE801002003
:10551000B402002000B58BB000230593069301224E
:1055200007920093019302930393049308920993C3
:1055300069460448FAF7BEFE431E9841C0B20BB05C
:1055400000BDC046E801002010B582B000236A46C5
:105550001380538001240200224043081C40A40011
:10556000530023436A469370830719D5CA006B46DC
:1055700098780723034013436A4693704B09D3700E
:105580008903CB0E11781F22914319436B46197082
:10559000009B1A0C12041B04180C104302B010BD1F
:1055A0004A016B4618781F23034013436A46137061
:1055B000C9085170ECE770B582B000236A461380C9
:1055C000538001240200224043081C402401D300E0
:1055D00023436A469370C4B283070FD54A016B46D2
:1055E0009D781F232B401343CA086D46EA704A0575
:1055F000520FF8252B4013436A4693708308012508
:105600002B40DA006B469B780826B343C00828403D
:10561000000113431022934318436B4698702307ED
:105620000FD50A0C52016B4618781F230340134311
:10563000CA0C684642704901490FF82213401943C9
:105640000170009B1A0C12041B04180C104302B0CA
:1056500070BD000010B51B4B80225204DA60A022FE
:1056600012031A61C02292035A61242806D88000CE
:10567000154B1B589F46134B03225A60FFF738FF08
:1056800010BD104B06225A60F8E70E4B0C225A60F0
:10569000F4E70C4B18225A60F0E70A4B1E225A60BE
:1056A000ECE7084B3C225A60E8E7064B96225A602A
:1056B000E4E7044B962252005A60DFE7014B2422B4
:1056C0005A60DBE7E8010020EC59000813488546E2
:1056D00013480168090E134A914205D11248134933
:1056E000016013481349016013481449144A002308
:1056F00002E0D458C4500433C4188C42F9D3114A80
:10570000114C002301E013600432A242FBD3FFF7E7
:10571000FDF800F01DF8FEF7CBFEFEE700180020B4
:10572000040000001F0000001810024001000000EB
:105730000000014000000000000000206001002087
:10574000885A000860010020AC0D0020FEE7000030
:1057500070B500260C4D0D4C641BA410A64209D157
:10576000002600F02BF80A4D0A4C641BA410A64238
:1057700005D170BDB300EB5898470136EEE7B30092
:10578000EB5898470136F2E7805A0008805A000823
:10579000805A0008845A0008002310B59A4200D1AC
:1057A00010BDCC5CC4540133F8E703008218934267
:1057B00000D1704719700133F9E70000F8B5C04611
:1057C000F8BC08BC9E467047F8B5C046F8BC08BC9B
:0457D0009E4670473A
:1057D40002030405060708090A0B0C0D0E0F10102E
:1057E400000000000102030405060708090A0B0C67
:1057F4000D0E0F1000000000F040000840410008AA
:10580400804100082241000880410008B83F000898
:10581400703E000880410008B64000080E400008B1
:10582400AE3F0008823E0008BE3E0008EC3E000881
:10583400AE3F0008AE3F00086E3F00088C3F0008F2
:10584400FA3E00080C3F00081E3F0008303F0008E5
:10585400423F0008543F00082E2E2F5372632F73CB
:10586400746D3332663078785F68616C5F6D737025
:105874002E63000000000000000000000102030489
:105884000607080900000000010203042E2E2F530E
:1058940072632F757362645F636F6E662E630000BC
:1058A40043414E5F5553425F436F6E766572746534
:1058B400724261736963000043414E4465766963D3
:1058C40065730000303030303030303030303141AA
:1058D4000000000043444320436F6E666967000084
:1058E40043444320496E7465726661636500000039
:1058F400B05100083254000832540008BE52000867
:105904006E50000832540008325400083254000823
:105914003254000886510008F05200081251000861
:10592400445100083254000832540008C25100089F
:10593400D64F0008C251000832540008DC50000859
:105944006E5000083254000832540008D85200083F
:10595400325400083254000832540008325400080B
:105964003254000832540008BE4F00080E54000898
:1059740032540008325400083254000832540008EB
:1059840032540008325400083254000832540008DB
:105994003254000868510008F052000832540008DC
:1059A400445100083254000832540008C25100081F
:1059B40074500008C251000832540008F450000822
:1059C400F64F0008025000080E5000081A50000854
:1059D40026500008325000083E5000084A50000883
:1059E4005650000862500008B2560008AA56000833
:1059F400A25600089A560008925600088A560008D3
:105A0400825600087C560008765600087C5600082A
:105A14007C5600087C5600087C5600087C5600081A
:105A24007C5600087C5600087C5600087C5600080A
:105A34007C5600087C5600087C5600087C560008FA
:105A44007C5600087C5600087C5600087C560008EA
:105A54007C5600087C5600087C5600087C560008DA
:105A64007C5600087C5600087C5600087C560008CA
:0C5A74007C5600087C560008BC56000858
:045A8000E900000831
:045A8400C100000855
:105A8800093A0008C9390008413900080000000037
:105A9800A93800088F3800080D39000800000000F8
:105AA8000000000000000000E9380008DD380008A8
:105AB800F53800080139000809024300020100C056
:105AC800320904000001020201000524001001054A
